{
  "address": "0x918cF1b9c433Baf1f81e0616c015dA3A9c5C221B",
  "abi": [
    {
      "inputs": [
        {
          "internalType": "string",
          "name": "_name",
          "type": "string"
        },
        {
          "internalType": "string",
          "name": "_symbol",
          "type": "string"
        },
        {
          "internalType": "address",
          "name": "_proxyRegistryAddress",
          "type": "address"
        }
      ],
      "stateMutability": "nonpayable",
      "type": "constructor"
    },
    {
      "anonymous": false,
      "inputs": [
        {
          "indexed": true,
          "internalType": "address",
          "name": "owner",
          "type": "address"
        },
        {
          "indexed": true,
          "internalType": "address",
          "name": "approved",
          "type": "address"
        },
        {
          "indexed": true,
          "internalType": "uint256",
          "name": "tokenId",
          "type": "uint256"
        }
      ],
      "name": "Approval",
      "type": "event"
    },
    {
      "anonymous": false,
      "inputs": [
        {
          "indexed": true,
          "internalType": "address",
          "name": "owner",
          "type": "address"
        },
        {
          "indexed": true,
          "internalType": "address",
          "name": "operator",
          "type": "address"
        },
        {
          "indexed": false,
          "internalType": "bool",
          "name": "approved",
          "type": "bool"
        }
      ],
      "name": "ApprovalForAll",
      "type": "event"
    },
    {
      "anonymous": false,
      "inputs": [
        {
          "indexed": true,
          "internalType": "uint256",
          "name": "_tokenId",
          "type": "uint256"
        },
        {
          "indexed": true,
          "internalType": "string",
          "name": "_tokenURI",
          "type": "string"
        }
      ],
      "name": "CreatedSVG_NFT",
      "type": "event"
    },
    {
      "anonymous": false,
      "inputs": [
        {
          "indexed": true,
          "internalType": "address",
          "name": "previousOwner",
          "type": "address"
        },
        {
          "indexed": true,
          "internalType": "address",
          "name": "newOwner",
          "type": "address"
        }
      ],
      "name": "OwnershipTransferred",
      "type": "event"
    },
    {
      "anonymous": false,
      "inputs": [
        {
          "indexed": true,
          "internalType": "address",
          "name": "from",
          "type": "address"
        },
        {
          "indexed": true,
          "internalType": "address",
          "name": "to",
          "type": "address"
        },
        {
          "indexed": true,
          "internalType": "uint256",
          "name": "tokenId",
          "type": "uint256"
        }
      ],
      "name": "Transfer",
      "type": "event"
    },
    {
      "inputs": [
        {
          "internalType": "address",
          "name": "to",
          "type": "address"
        },
        {
          "internalType": "uint256",
          "name": "tokenId",
          "type": "uint256"
        }
      ],
      "name": "approve",
      "outputs": [],
      "stateMutability": "nonpayable",
      "type": "function"
    },
    {
      "inputs": [
        {
          "internalType": "address",
          "name": "owner",
          "type": "address"
        }
      ],
      "name": "balanceOf",
      "outputs": [
        {
          "internalType": "uint256",
          "name": "",
          "type": "uint256"
        }
      ],
      "stateMutability": "view",
      "type": "function"
    },
    {
      "inputs": [
        {
          "internalType": "uint256",
          "name": "tokenId",
          "type": "uint256"
        }
      ],
      "name": "getApproved",
      "outputs": [
        {
          "internalType": "address",
          "name": "",
          "type": "address"
        }
      ],
      "stateMutability": "view",
      "type": "function"
    },
    {
      "inputs": [
        {
          "internalType": "address",
          "name": "_owner",
          "type": "address"
        },
        {
          "internalType": "address",
          "name": "_operator",
          "type": "address"
        }
      ],
      "name": "isApprovedForAll",
      "outputs": [
        {
          "internalType": "bool",
          "name": "isOperator",
          "type": "bool"
        }
      ],
      "stateMutability": "view",
      "type": "function"
    },
    {
      "inputs": [
        {
          "internalType": "string",
          "name": "_metadataEncoded",
          "type": "string"
        }
      ],
      "name": "mintNFT",
      "outputs": [
        {
          "internalType": "uint256",
          "name": "",
          "type": "uint256"
        }
      ],
      "stateMutability": "nonpayable",
      "type": "function"
    },
    {
      "inputs": [],
      "name": "name",
      "outputs": [
        {
          "internalType": "string",
          "name": "",
          "type": "string"
        }
      ],
      "stateMutability": "view",
      "type": "function"
    },
    {
      "inputs": [],
      "name": "owner",
      "outputs": [
        {
          "internalType": "address",
          "name": "",
          "type": "address"
        }
      ],
      "stateMutability": "view",
      "type": "function"
    },
    {
      "inputs": [
        {
          "internalType": "uint256",
          "name": "tokenId",
          "type": "uint256"
        }
      ],
      "name": "ownerOf",
      "outputs": [
        {
          "internalType": "address",
          "name": "",
          "type": "address"
        }
      ],
      "stateMutability": "view",
      "type": "function"
    },
    {
      "inputs": [],
      "name": "renounceOwnership",
      "outputs": [],
      "stateMutability": "nonpayable",
      "type": "function"
    },
    {
      "inputs": [
        {
          "internalType": "address",
          "name": "from",
          "type": "address"
        },
        {
          "internalType": "address",
          "name": "to",
          "type": "address"
        },
        {
          "internalType": "uint256",
          "name": "tokenId",
          "type": "uint256"
        }
      ],
      "name": "safeTransferFrom",
      "outputs": [],
      "stateMutability": "nonpayable",
      "type": "function"
    },
    {
      "inputs": [
        {
          "internalType": "address",
          "name": "from",
          "type": "address"
        },
        {
          "internalType": "address",
          "name": "to",
          "type": "address"
        },
        {
          "internalType": "uint256",
          "name": "tokenId",
          "type": "uint256"
        },
        {
          "internalType": "bytes",
          "name": "_data",
          "type": "bytes"
        }
      ],
      "name": "safeTransferFrom",
      "outputs": [],
      "stateMutability": "nonpayable",
      "type": "function"
    },
    {
      "inputs": [
        {
          "internalType": "address",
          "name": "operator",
          "type": "address"
        },
        {
          "internalType": "bool",
          "name": "approved",
          "type": "bool"
        }
      ],
      "name": "setApprovalForAll",
      "outputs": [],
      "stateMutability": "nonpayable",
      "type": "function"
    },
    {
      "inputs": [
        {
          "internalType": "address",
          "name": "_proxyRegistryAddress",
          "type": "address"
        }
      ],
      "name": "setProxyRegistryAddress",
      "outputs": [],
      "stateMutability": "nonpayable",
      "type": "function"
    },
    {
      "inputs": [
        {
          "internalType": "bytes4",
          "name": "interfaceId",
          "type": "bytes4"
        }
      ],
      "name": "supportsInterface",
      "outputs": [
        {
          "internalType": "bool",
          "name": "",
          "type": "bool"
        }
      ],
      "stateMutability": "view",
      "type": "function"
    },
    {
      "inputs": [],
      "name": "symbol",
      "outputs": [
        {
          "internalType": "string",
          "name": "",
          "type": "string"
        }
      ],
      "stateMutability": "view",
      "type": "function"
    },
    {
      "inputs": [
        {
          "internalType": "uint256",
          "name": "tokenId",
          "type": "uint256"
        }
      ],
      "name": "tokenURI",
      "outputs": [
        {
          "internalType": "string",
          "name": "",
          "type": "string"
        }
      ],
      "stateMutability": "view",
      "type": "function"
    },
    {
      "inputs": [
        {
          "internalType": "address",
          "name": "from",
          "type": "address"
        },
        {
          "internalType": "address",
          "name": "to",
          "type": "address"
        },
        {
          "internalType": "uint256",
          "name": "tokenId",
          "type": "uint256"
        }
      ],
      "name": "transferFrom",
      "outputs": [],
      "stateMutability": "nonpayable",
      "type": "function"
    },
    {
      "inputs": [
        {
          "internalType": "address",
          "name": "newOwner",
          "type": "address"
        }
      ],
      "name": "transferOwnership",
      "outputs": [],
      "stateMutability": "nonpayable",
      "type": "function"
    }
  ],
  "transactionHash": "0x8958669b0630e0e7136c9a44e52129698b12e6d8cf243791586c72d2dde8f6e1",
  "args": [
    "NFTetris",
    "NFTETRIS",
    "0x58807baD0B376efc12F5AD86aAc70E78ed67deaE"
  ],
  "numDeployments": 1,
  "solcInputHash": "70edbb4d8b883754a8d3190b99c7caf4",
  "bytecode": "0x60806040523480156200001157600080fd5b506040516200374e3803806200374e833981810160405281019062000037919062000302565b8282816000908051906020019062000051929190620001c9565b5080600190805190602001906200006a929190620001c9565b5050506200008d62000081620000ee60201b60201c565b620000f660201b60201c565b620000a46008620001bc60201b62000eb11760201c565b80600960006101000a81548173ffffffffffffffffffffffffffffffffffffffff021916908373ffffffffffffffffffffffffffffffffffffffff16021790555050505062000548565b600033905090565b6000600760009054906101000a900473ffffffffffffffffffffffffffffffffffffffff16905081600760006101000a81548173ffffffffffffffffffffffffffffffffffffffff021916908373ffffffffffffffffffffffffffffffffffffffff1602179055508173ffffffffffffffffffffffffffffffffffffffff168173ffffffffffffffffffffffffffffffffffffffff167f8be0079c531659141344cd1fd0a4f28419497f9722a3daafe3b4186f6b6457e060405160405180910390a35050565b6000816000018190555050565b828054620001d79062000453565b90600052602060002090601f016020900481019282620001fb576000855562000247565b82601f106200021657805160ff191683800117855562000247565b8280016001018555821562000247579182015b828111156200024657825182559160200191906001019062000229565b5b5090506200025691906200025a565b5090565b5b80821115620002755760008160009055506001016200025b565b5090565b6000620002906200028a84620003b3565b6200038a565b905082815260208101848484011115620002a957600080fd5b620002b68482856200041d565b509392505050565b600081519050620002cf816200052e565b92915050565b600082601f830112620002e757600080fd5b8151620002f984826020860162000279565b91505092915050565b6000806000606084860312156200031857600080fd5b600084015167ffffffffffffffff8111156200033357600080fd5b6200034186828701620002d5565b935050602084015167ffffffffffffffff8111156200035f57600080fd5b6200036d86828701620002d5565b92505060406200038086828701620002be565b9150509250925092565b600062000396620003a9565b9050620003a4828262000489565b919050565b6000604051905090565b600067ffffffffffffffff821115620003d157620003d0620004ee565b5b620003dc826200051d565b9050602081019050919050565b6000620003f682620003fd565b9050919050565b600073ffffffffffffffffffffffffffffffffffffffff82169050919050565b60005b838110156200043d57808201518184015260208101905062000420565b838111156200044d576000848401525b50505050565b600060028204905060018216806200046c57607f821691505b60208210811415620004835762000482620004bf565b5b50919050565b62000494826200051d565b810181811067ffffffffffffffff82111715620004b657620004b5620004ee565b5b80604052505050565b7f4e487b7100000000000000000000000000000000000000000000000000000000600052602260045260246000fd5b7f4e487b7100000000000000000000000000000000000000000000000000000000600052604160045260246000fd5b6000601f19601f8301169050919050565b6200053981620003e9565b81146200054557600080fd5b50565b6131f680620005586000396000f3fe608060405234801561001057600080fd5b50600436106101165760003560e01c80638da5cb5b116100a2578063c87b56dd11610071578063c87b56dd146102cb578063d26ea6c0146102fb578063e985e9c514610317578063f2fde38b14610347578063fb37e8831461036357610116565b80638da5cb5b1461025757806395d89b4114610275578063a22cb46514610293578063b88d4fde146102af57610116565b806323b872dd116100e957806323b872dd146101b557806342842e0e146101d15780636352211e146101ed57806370a082311461021d578063715018a61461024d57610116565b806301ffc9a71461011b57806306fdde031461014b578063081812fc14610169578063095ea7b314610199575b600080fd5b610135600480360381019061013091906120e1565b610393565b60405161014291906125a8565b60405180910390f35b610153610475565b60405161016091906125c3565b60405180910390f35b610183600480360381019061017e9190612174565b610507565b6040516101909190612541565b60405180910390f35b6101b360048036038101906101ae91906120a5565b61058c565b005b6101cf60048036038101906101ca9190611f9f565b6106a4565b005b6101eb60048036038101906101e69190611f9f565b610704565b005b61020760048036038101906102029190612174565b610724565b6040516102149190612541565b60405180910390f35b61023760048036038101906102329190611f3a565b6107d6565b6040516102449190612845565b60405180910390f35b61025561088e565b005b61025f610916565b60405161026c9190612541565b60405180910390f35b61027d610940565b60405161028a91906125c3565b60405180910390f35b6102ad60048036038101906102a89190612069565b6109d2565b005b6102c960048036038101906102c49190611fee565b6109e8565b005b6102e560048036038101906102e09190612174565b610a4a565b6040516102f291906125c3565b60405180910390f35b61031560048036038101906103109190611f3a565b610b9c565b005b610331600480360381019061032c9190611f63565b610ccc565b60405161033e91906125a8565b60405180910390f35b610361600480360381019061035c9190611f3a565b610d40565b005b61037d60048036038101906103789190612133565b610e38565b60405161038a9190612845565b60405180910390f35b60007f80ac58cd000000000000000000000000000000000000000000000000000000007bffffffffffffffffffffffffffffffffffffffffffffffffffffffff1916827bffffffffffffffffffffffffffffffffffffffffffffffffffffffff1916148061045e57507f5b5e139f000000000000000000000000000000000000000000000000000000007bffffffffffffffffffffffffffffffffffffffffffffffffffffffff1916827bffffffffffffffffffffffffffffffffffffffffffffffffffffffff1916145b8061046e575061046d82610ebe565b5b9050919050565b60606000805461048490612a9b565b80601f01602080910402602001604051908101604052809291908181526020018280546104b090612a9b565b80156104fd5780601f106104d2576101008083540402835291602001916104fd565b820191906000526020600020905b8154815290600101906020018083116104e057829003601f168201915b5050505050905090565b600061051282610f28565b610551576040517f08c379a0000000000000000000000000000000000000000000000000000000008152600401610548906127a5565b60405180910390fd5b6004600083815260200190815260200160002060009054906101000a900473ffffffffffffffffffffffffffffffffffffffff169050919050565b600061059782610724565b90508073ffffffffffffffffffffffffffffffffffffffff168373ffffffffffffffffffffffffffffffffffffffff161415610608576040517f08c379a00000000000000000000000000000000000000000000000000000000081526004016105ff90612805565b60405180910390fd5b8073ffffffffffffffffffffffffffffffffffffffff16610627610f94565b73ffffffffffffffffffffffffffffffffffffffff161480610656575061065581610650610f94565b610ccc565b5b610695576040517f08c379a000000000000000000000000000000000000000000000000000000000815260040161068c906126e5565b60405180910390fd5b61069f8383610f9c565b505050565b6106b56106af610f94565b82611055565b6106f4576040517f08c379a00000000000000000000000000000000000000000000000000000000081526004016106eb90612825565b60405180910390fd5b6106ff838383611133565b505050565b61071f838383604051806020016040528060008152506109e8565b505050565b6000806002600084815260200190815260200160002060009054906101000a900473ffffffffffffffffffffffffffffffffffffffff169050600073ffffffffffffffffffffffffffffffffffffffff168173ffffffffffffffffffffffffffffffffffffffff1614156107cd576040517f08c379a00000000000000000000000000000000000000000000000000000000081526004016107c490612725565b60405180910390fd5b80915050919050565b60008073ffffffffffffffffffffffffffffffffffffffff168273ffffffffffffffffffffffffffffffffffffffff161415610847576040517f08c379a000000000000000000000000000000000000000000000000000000000815260040161083e90612705565b60405180910390fd5b600360008373ffffffffffffffffffffffffffffffffffffffff1673ffffffffffffffffffffffffffffffffffffffff168152602001908152602001600020549050919050565b610896610f94565b73ffffffffffffffffffffffffffffffffffffffff166108b4610916565b73ffffffffffffffffffffffffffffffffffffffff161461090a576040517f08c379a0000000000000000000000000000000000000000000000000000000008152600401610901906127c5565b60405180910390fd5b610914600061139a565b565b6000600760009054906101000a900473ffffffffffffffffffffffffffffffffffffffff16905090565b60606001805461094f90612a9b565b80601f016020809104026020016040519081016040528092919081815260200182805461097b90612a9b565b80156109c85780601f1061099d576101008083540402835291602001916109c8565b820191906000526020600020905b8154815290600101906020018083116109ab57829003601f168201915b5050505050905090565b6109e46109dd610f94565b8383611460565b5050565b6109f96109f3610f94565b83611055565b610a38576040517f08c379a0000000000000000000000000000000000000000000000000000000008152600401610a2f90612825565b60405180910390fd5b610a44848484846115cd565b50505050565b6060610a5582610f28565b610a94576040517f08c379a0000000000000000000000000000000000000000000000000000000008152600401610a8b90612785565b60405180910390fd5b6000600660008481526020019081526020016000208054610ab490612a9b565b80601f0160208091040260200160405190810160405280929190818152602001828054610ae090612a9b565b8015610b2d5780601f10610b0257610100808354040283529160200191610b2d565b820191906000526020600020905b815481529060010190602001808311610b1057829003601f168201915b505050505090506000610b3e611629565b9050600081511415610b54578192505050610b97565b600082511115610b89578082604051602001610b7192919061251d565b60405160208183030381529060405292505050610b97565b610b9284611640565b925050505b919050565b610ba4610f94565b73ffffffffffffffffffffffffffffffffffffffff16610bc2610916565b73ffffffffffffffffffffffffffffffffffffffff1614610c18576040517f08c379a0000000000000000000000000000000000000000000000000000000008152600401610c0f906127c5565b60405180910390fd5b600073ffffffffffffffffffffffffffffffffffffffff168173ffffffffffffffffffffffffffffffffffffffff161415610c88576040517f08c379a0000000000000000000000000000000000000000000000000000000008152600401610c7f906125e5565b60405180910390fd5b80600960006101000a81548173ffffffffffffffffffffffffffffffffffffffff021916908373ffffffffffffffffffffffffffffffffffffffff16021790555050565b6000600960009054906101000a900473ffffffffffffffffffffffffffffffffffffffff1673ffffffffffffffffffffffffffffffffffffffff168273ffffffffffffffffffffffffffffffffffffffff161415610d2d5760019050610d3a565b610d3783836116e7565b90505b92915050565b610d48610f94565b73ffffffffffffffffffffffffffffffffffffffff16610d66610916565b73ffffffffffffffffffffffffffffffffffffffff1614610dbc576040517f08c379a0000000000000000000000000000000000000000000000000000000008152600401610db3906127c5565b60405180910390fd5b600073ffffffffffffffffffffffffffffffffffffffff168173ffffffffffffffffffffffffffffffffffffffff161415610e2c576040517f08c379a0000000000000000000000000000000000000000000000000000000008152600401610e2390612625565b60405180910390fd5b610e358161139a565b50565b600080610e45600861177b565b9050610e513382611789565b610e5b8184611963565b610e6560086119d7565b82604051610e739190612506565b6040518091039020817f665424aa4f6f2f527016903eb1170b25deecbe8227376cbfe82ee7345cc3a4ae60405160405180910390a380915050919050565b6000816000018190555050565b60007f01ffc9a7000000000000000000000000000000000000000000000000000000007bffffffffffffffffffffffffffffffffffffffffffffffffffffffff1916827bffffffffffffffffffffffffffffffffffffffffffffffffffffffff1916149050919050565b60008073ffffffffffffffffffffffffffffffffffffffff166002600084815260200190815260200160002060009054906101000a900473ffffffffffffffffffffffffffffffffffffffff1673ffffffffffffffffffffffffffffffffffffffff1614159050919050565b600033905090565b816004600083815260200190815260200160002060006101000a81548173ffffffffffffffffffffffffffffffffffffffff021916908373ffffffffffffffffffffffffffffffffffffffff160217905550808273ffffffffffffffffffffffffffffffffffffffff1661100f83610724565b73ffffffffffffffffffffffffffffffffffffffff167f8c5be1e5ebec7d5bd14f71427d1e84f3dd0314c0f7b2291e5b200ac8c7c3b92560405160405180910390a45050565b600061106082610f28565b61109f576040517f08c379a0000000000000000000000000000000000000000000000000000000008152600401611096906126c5565b60405180910390fd5b60006110aa83610724565b90508073ffffffffffffffffffffffffffffffffffffffff168473ffffffffffffffffffffffffffffffffffffffff16148061111957508373ffffffffffffffffffffffffffffffffffffffff1661110184610507565b73ffffffffffffffffffffffffffffffffffffffff16145b8061112a57506111298185610ccc565b5b91505092915050565b8273ffffffffffffffffffffffffffffffffffffffff1661115382610724565b73ffffffffffffffffffffffffffffffffffffffff16146111a9576040517f08c379a00000000000000000000000000000000000000000000000000000000081526004016111a090612645565b60405180910390fd5b600073ffffffffffffffffffffffffffffffffffffffff168273ffffffffffffffffffffffffffffffffffffffff161415611219576040517f08c379a000000000000000000000000000000000000000000000000000000000815260040161121090612685565b60405180910390fd5b6112248383836119ed565b61122f600082610f9c565b6001600360008573ffffffffffffffffffffffffffffffffffffffff1673ffffffffffffffffffffffffffffffffffffffff168152602001908152602001600020600082825461127f91906129b1565b925050819055506001600360008473ffffffffffffffffffffffffffffffffffffffff1673ffffffffffffffffffffffffffffffffffffffff16815260200190815260200160002060008282546112d6919061292a565b92505081905550816002600083815260200190815260200160002060006101000a81548173ffffffffffffffffffffffffffffffffffffffff021916908373ffffffffffffffffffffffffffffffffffffffff160217905550808273ffffffffffffffffffffffffffffffffffffffff168473ffffffffffffffffffffffffffffffffffffffff167fddf252ad1be2c89b69c2b068fc378daa952ba7f163c4a11628f55a4df523b3ef60405160405180910390a46113958383836119f2565b505050565b6000600760009054906101000a900473ffffffffffffffffffffffffffffffffffffffff16905081600760006101000a81548173ffffffffffffffffffffffffffffffffffffffff021916908373ffffffffffffffffffffffffffffffffffffffff1602179055508173ffffffffffffffffffffffffffffffffffffffff168173ffffffffffffffffffffffffffffffffffffffff167f8be0079c531659141344cd1fd0a4f28419497f9722a3daafe3b4186f6b6457e060405160405180910390a35050565b8173ffffffffffffffffffffffffffffffffffffffff168373ffffffffffffffffffffffffffffffffffffffff1614156114cf576040517f08c379a00000000000000000000000000000000000000000000000000000000081526004016114c6906126a5565b60405180910390fd5b80600560008573ffffffffffffffffffffffffffffffffffffffff1673ffffffffffffffffffffffffffffffffffffffff16815260200190815260200160002060008473ffffffffffffffffffffffffffffffffffffffff1673ffffffffffffffffffffffffffffffffffffffff16815260200190815260200160002060006101000a81548160ff0219169083151502179055508173ffffffffffffffffffffffffffffffffffffffff168373ffffffffffffffffffffffffffffffffffffffff167f17307eab39ab6107e8899845ad3d59bd9653f200f220920489ca2b5937696c31836040516115c091906125a8565b60405180910390a3505050565b6115d8848484611133565b6115e4848484846119f7565b611623576040517f08c379a000000000000000000000000000000000000000000000000000000000815260040161161a90612605565b60405180910390fd5b50505050565b606060405180602001604052806000815250905090565b606061164b82610f28565b61168a576040517f08c379a0000000000000000000000000000000000000000000000000000000008152600401611681906127e5565b60405180910390fd5b6000611694611629565b905060008151116116b457604051806020016040528060008152506116df565b806116be84611b8e565b6040516020016116cf92919061251d565b6040516020818303038152906040525b915050919050565b6000600560008473ffffffffffffffffffffffffffffffffffffffff1673ffffffffffffffffffffffffffffffffffffffff16815260200190815260200160002060008373ffffffffffffffffffffffffffffffffffffffff1673ffffffffffffffffffffffffffffffffffffffff16815260200190815260200160002060009054906101000a900460ff16905092915050565b600081600001549050919050565b600073ffffffffffffffffffffffffffffffffffffffff168273ffffffffffffffffffffffffffffffffffffffff1614156117f9576040517f08c379a00000000000000000000000000000000000000000000000000000000081526004016117f090612765565b60405180910390fd5b61180281610f28565b15611842576040517f08c379a000000000000000000000000000000000000000000000000000000000815260040161183990612665565b60405180910390fd5b61184e600083836119ed565b6001600360008473ffffffffffffffffffffffffffffffffffffffff1673ffffffffffffffffffffffffffffffffffffffff168152602001908152602001600020600082825461189e919061292a565b92505081905550816002600083815260200190815260200160002060006101000a81548173ffffffffffffffffffffffffffffffffffffffff021916908373ffffffffffffffffffffffffffffffffffffffff160217905550808273ffffffffffffffffffffffffffffffffffffffff16600073ffffffffffffffffffffffffffffffffffffffff167fddf252ad1be2c89b69c2b068fc378daa952ba7f163c4a11628f55a4df523b3ef60405160405180910390a461195f600083836119f2565b5050565b61196c82610f28565b6119ab576040517f08c379a00000000000000000000000000000000000000000000000000000000081526004016119a290612745565b60405180910390fd5b806006600084815260200190815260200160002090805190602001906119d2929190611d5e565b505050565b6001816000016000828254019250508190555050565b505050565b505050565b6000611a188473ffffffffffffffffffffffffffffffffffffffff16611d3b565b15611b81578373ffffffffffffffffffffffffffffffffffffffff1663150b7a02611a41610f94565b8786866040518563ffffffff1660e01b8152600401611a63949392919061255c565b602060405180830381600087803b158015611a7d57600080fd5b505af1925050508015611aae57506040513d601f19601f82011682018060405250810190611aab919061210a565b60015b611b31573d8060008114611ade576040519150601f19603f3d011682016040523d82523d6000602084013e611ae3565b606091505b50600081511415611b29576040517f08c379a0000000000000000000000000000000000000000000000000000000008152600401611b2090612605565b60405180910390fd5b805181602001fd5b63150b7a0260e01b7bffffffffffffffffffffffffffffffffffffffffffffffffffffffff1916817bffffffffffffffffffffffffffffffffffffffffffffffffffffffff191614915050611b86565b600190505b949350505050565b60606000821415611bd6576040518060400160405280600181526020017f30000000000000000000000000000000000000000000000000000000000000008152509050611d36565b600082905060005b60008214611c08578080611bf190612afe565b915050600a82611c019190612980565b9150611bde565b60008167ffffffffffffffff811115611c4a577f4e487b7100000000000000000000000000000000000000000000000000000000600052604160045260246000fd5b6040519080825280601f01601f191660200182016040528015611c7c5781602001600182028036833780820191505090505b5090505b60008514611d2f57600182611c9591906129b1565b9150600a85611ca49190612b47565b6030611cb0919061292a565b60f81b818381518110611cec577f4e487b7100000000000000000000000000000000000000000000000000000000600052603260045260246000fd5b60200101907effffffffffffffffffffffffffffffffffffffffffffffffffffffffffffff1916908160001a905350600a85611d289190612980565b9450611c80565b8093505050505b919050565b6000808273ffffffffffffffffffffffffffffffffffffffff163b119050919050565b828054611d6a90612a9b565b90600052602060002090601f016020900481019282611d8c5760008555611dd3565b82601f10611da557805160ff1916838001178555611dd3565b82800160010185558215611dd3579182015b82811115611dd2578251825591602001919060010190611db7565b5b509050611de09190611de4565b5090565b5b80821115611dfd576000816000905550600101611de5565b5090565b6000611e14611e0f84612885565b612860565b905082815260208101848484011115611e2c57600080fd5b611e37848285612a59565b509392505050565b6000611e52611e4d846128b6565b612860565b905082815260208101848484011115611e6a57600080fd5b611e75848285612a59565b509392505050565b600081359050611e8c81613164565b92915050565b600081359050611ea18161317b565b92915050565b600081359050611eb681613192565b92915050565b600081519050611ecb81613192565b92915050565b600082601f830112611ee257600080fd5b8135611ef2848260208601611e01565b91505092915050565b600082601f830112611f0c57600080fd5b8135611f1c848260208601611e3f565b91505092915050565b600081359050611f34816131a9565b92915050565b600060208284031215611f4c57600080fd5b6000611f5a84828501611e7d565b91505092915050565b60008060408385031215611f7657600080fd5b6000611f8485828601611e7d565b9250506020611f9585828601611e7d565b9150509250929050565b600080600060608486031215611fb457600080fd5b6000611fc286828701611e7d565b9350506020611fd386828701611e7d565b9250506040611fe486828701611f25565b9150509250925092565b6000806000806080858703121561200457600080fd5b600061201287828801611e7d565b945050602061202387828801611e7d565b935050604061203487828801611f25565b925050606085013567ffffffffffffffff81111561205157600080fd5b61205d87828801611ed1565b91505092959194509250565b6000806040838503121561207c57600080fd5b600061208a85828601611e7d565b925050602061209b85828601611e92565b9150509250929050565b600080604083850312156120b857600080fd5b60006120c685828601611e7d565b92505060206120d785828601611f25565b9150509250929050565b6000602082840312156120f357600080fd5b600061210184828501611ea7565b91505092915050565b60006020828403121561211c57600080fd5b600061212a84828501611ebc565b91505092915050565b60006020828403121561214557600080fd5b600082013567ffffffffffffffff81111561215f57600080fd5b61216b84828501611efb565b91505092915050565b60006020828403121561218657600080fd5b600061219484828501611f25565b91505092915050565b6121a6816129e5565b82525050565b6121b5816129f7565b82525050565b60006121c6826128e7565b6121d081856128fd565b93506121e0818560208601612a68565b6121e981612c34565b840191505092915050565b60006121ff826128f2565b612209818561290e565b9350612219818560208601612a68565b61222281612c34565b840191505092915050565b6000612238826128f2565b612242818561291f565b9350612252818560208601612a68565b80840191505092915050565b600061226b600f8361290e565b915061227682612c45565b602082019050919050565b600061228e60328361290e565b915061229982612c6e565b604082019050919050565b60006122b160268361290e565b91506122bc82612cbd565b604082019050919050565b60006122d460258361290e565b91506122df82612d0c565b604082019050919050565b60006122f7601c8361290e565b915061230282612d5b565b602082019050919050565b600061231a60248361290e565b915061232582612d84565b604082019050919050565b600061233d60198361290e565b915061234882612dd3565b602082019050919050565b6000612360602c8361290e565b915061236b82612dfc565b604082019050919050565b600061238360388361290e565b915061238e82612e4b565b604082019050919050565b60006123a6602a8361290e565b91506123b182612e9a565b604082019050919050565b60006123c960298361290e565b91506123d482612ee9565b604082019050919050565b60006123ec602e8361290e565b91506123f782612f38565b604082019050919050565b600061240f60208361290e565b915061241a82612f87565b602082019050919050565b600061243260318361290e565b915061243d82612fb0565b604082019050919050565b6000612455602c8361290e565b915061246082612fff565b604082019050919050565b600061247860208361290e565b91506124838261304e565b602082019050919050565b600061249b602f8361290e565b91506124a682613077565b604082019050919050565b60006124be60218361290e565b91506124c9826130c6565b604082019050919050565b60006124e160318361290e565b91506124ec82613115565b604082019050919050565b61250081612a4f565b82525050565b6000612512828461222d565b915081905092915050565b6000612529828561222d565b9150612535828461222d565b91508190509392505050565b6000602082019050612556600083018461219d565b92915050565b6000608082019050612571600083018761219d565b61257e602083018661219d565b61258b60408301856124f7565b818103606083015261259d81846121bb565b905095945050505050565b60006020820190506125bd60008301846121ac565b92915050565b600060208201905081810360008301526125dd81846121f4565b905092915050565b600060208201905081810360008301526125fe8161225e565b9050919050565b6000602082019050818103600083015261261e81612281565b9050919050565b6000602082019050818103600083015261263e816122a4565b9050919050565b6000602082019050818103600083015261265e816122c7565b9050919050565b6000602082019050818103600083015261267e816122ea565b9050919050565b6000602082019050818103600083015261269e8161230d565b9050919050565b600060208201905081810360008301526126be81612330565b9050919050565b600060208201905081810360008301526126de81612353565b9050919050565b600060208201905081810360008301526126fe81612376565b9050919050565b6000602082019050818103600083015261271e81612399565b9050919050565b6000602082019050818103600083015261273e816123bc565b9050919050565b6000602082019050818103600083015261275e816123df565b9050919050565b6000602082019050818103600083015261277e81612402565b9050919050565b6000602082019050818103600083015261279e81612425565b9050919050565b600060208201905081810360008301526127be81612448565b9050919050565b600060208201905081810360008301526127de8161246b565b9050919050565b600060208201905081810360008301526127fe8161248e565b9050919050565b6000602082019050818103600083015261281e816124b1565b9050919050565b6000602082019050818103600083015261283e816124d4565b9050919050565b600060208201905061285a60008301846124f7565b92915050565b600061286a61287b565b90506128768282612acd565b919050565b6000604051905090565b600067ffffffffffffffff8211156128a05761289f612c05565b5b6128a982612c34565b9050602081019050919050565b600067ffffffffffffffff8211156128d1576128d0612c05565b5b6128da82612c34565b9050602081019050919050565b600081519050919050565b600081519050919050565b600082825260208201905092915050565b600082825260208201905092915050565b600081905092915050565b600061293582612a4f565b915061294083612a4f565b9250827fffffffffffffffffffffffffffffffffffffffffffffffffffffffffffffffff0382111561297557612974612b78565b5b828201905092915050565b600061298b82612a4f565b915061299683612a4f565b9250826129a6576129a5612ba7565b5b828204905092915050565b60006129bc82612a4f565b91506129c783612a4f565b9250828210156129da576129d9612b78565b5b828203905092915050565b60006129f082612a2f565b9050919050565b60008115159050919050565b60007fffffffff0000000000000000000000000000000000000000000000000000000082169050919050565b600073ffffffffffffffffffffffffffffffffffffffff82169050919050565b6000819050919050565b82818337600083830152505050565b60005b83811015612a86578082015181840152602081019050612a6b565b83811115612a95576000848401525b50505050565b60006002820490506001821680612ab357607f821691505b60208210811415612ac757612ac6612bd6565b5b50919050565b612ad682612c34565b810181811067ffffffffffffffff82111715612af557612af4612c05565b5b80604052505050565b6000612b0982612a4f565b91507fffffffffffffffffffffffffffffffffffffffffffffffffffffffffffffffff821415612b3c57612b3b612b78565b5b600182019050919050565b6000612b5282612a4f565b9150612b5d83612a4f565b925082612b6d57612b6c612ba7565b5b828206905092915050565b7f4e487b7100000000000000000000000000000000000000000000000000000000600052601160045260246000fd5b7f4e487b7100000000000000000000000000000000000000000000000000000000600052601260045260246000fd5b7f4e487b7100000000000000000000000000000000000000000000000000000000600052602260045260246000fd5b7f4e487b7100000000000000000000000000000000000000000000000000000000600052604160045260246000fd5b6000601f19601f8301169050919050565b7f496e76616c696420616464726573730000000000000000000000000000000000600082015250565b7f4552433732313a207472616e7366657220746f206e6f6e20455243373231526560008201527f63656976657220696d706c656d656e7465720000000000000000000000000000602082015250565b7f4f776e61626c653a206e6577206f776e657220697320746865207a65726f206160008201527f6464726573730000000000000000000000000000000000000000000000000000602082015250565b7f4552433732313a207472616e736665722066726f6d20696e636f72726563742060008201527f6f776e6572000000000000000000000000000000000000000000000000000000602082015250565b7f4552433732313a20746f6b656e20616c7265616479206d696e74656400000000600082015250565b7f4552433732313a207472616e7366657220746f20746865207a65726f2061646460008201527f7265737300000000000000000000000000000000000000000000000000000000602082015250565b7f4552433732313a20617070726f766520746f2063616c6c657200000000000000600082015250565b7f4552433732313a206f70657261746f7220717565727920666f72206e6f6e657860008201527f697374656e7420746f6b656e0000000000000000000000000000000000000000602082015250565b7f4552433732313a20617070726f76652063616c6c6572206973206e6f74206f7760008201527f6e6572206e6f7220617070726f76656420666f7220616c6c0000000000000000602082015250565b7f4552433732313a2062616c616e636520717565727920666f7220746865207a6560008201527f726f206164647265737300000000000000000000000000000000000000000000602082015250565b7f4552433732313a206f776e657220717565727920666f72206e6f6e657869737460008201527f656e7420746f6b656e0000000000000000000000000000000000000000000000602082015250565b7f45524337323155524953746f726167653a2055524920736574206f66206e6f6e60008201527f6578697374656e7420746f6b656e000000000000000000000000000000000000602082015250565b7f4552433732313a206d696e7420746f20746865207a65726f2061646472657373600082015250565b7f45524337323155524953746f726167653a2055524920717565727920666f722060008201527f6e6f6e6578697374656e7420746f6b656e000000000000000000000000000000602082015250565b7f4552433732313a20617070726f76656420717565727920666f72206e6f6e657860008201527f697374656e7420746f6b656e0000000000000000000000000000000000000000602082015250565b7f4f776e61626c653a2063616c6c6572206973206e6f7420746865206f776e6572600082015250565b7f4552433732314d657461646174613a2055524920717565727920666f72206e6f60008201527f6e6578697374656e7420746f6b656e0000000000000000000000000000000000602082015250565b7f4552433732313a20617070726f76616c20746f2063757272656e74206f776e6560008201527f7200000000000000000000000000000000000000000000000000000000000000602082015250565b7f4552433732313a207472616e736665722063616c6c6572206973206e6f74206f60008201527f776e6572206e6f7220617070726f766564000000000000000000000000000000602082015250565b61316d816129e5565b811461317857600080fd5b50565b613184816129f7565b811461318f57600080fd5b50565b61319b81612a03565b81146131a657600080fd5b50565b6131b281612a4f565b81146131bd57600080fd5b5056fea2646970667358221220fa3eaebcc5bad8c67ec0f4989014916ad2b5b1de057764599d56ea84bde5512764736f6c63430008040033",
  "devdoc": {
    "kind": "dev",
    "methods": {
      "approve(address,uint256)": {
        "details": "See {IERC721-approve}."
      },
      "balanceOf(address)": {
        "details": "See {IERC721-balanceOf}."
      },
      "getApproved(uint256)": {
        "details": "See {IERC721-getApproved}."
      },
      "name()": {
        "details": "See {IERC721Metadata-name}."
      },
      "owner()": {
        "details": "Returns the address of the current owner."
      },
      "ownerOf(uint256)": {
        "details": "See {IERC721-ownerOf}."
      },
      "renounceOwnership()": {
        "details": "Leaves the contract without owner. It will not be possible to call `onlyOwner` functions anymore. Can only be called by the current owner. NOTE: Renouncing ownership will leave the contract without an owner, thereby removing any functionality that is only available to the owner."
      },
      "safeTransferFrom(address,address,uint256)": {
        "details": "See {IERC721-safeTransferFrom}."
      },
      "safeTransferFrom(address,address,uint256,bytes)": {
        "details": "See {IERC721-safeTransferFrom}."
      },
      "setApprovalForAll(address,bool)": {
        "details": "See {IERC721-setApprovalForAll}."
      },
      "supportsInterface(bytes4)": {
        "details": "See {IERC165-supportsInterface}."
      },
      "symbol()": {
        "details": "See {IERC721Metadata-symbol}."
      },
      "tokenURI(uint256)": {
        "details": "See {IERC721Metadata-tokenURI}."
      },
      "transferFrom(address,address,uint256)": {
        "details": "See {IERC721-transferFrom}."
      },
      "transferOwnership(address)": {
        "details": "Transfers ownership of the contract to a new account (`newOwner`). Can only be called by the current owner."
      }
    },
    "version": 1
  },
  "userdoc": {
    "kind": "user",
    "methods": {
      "isApprovedForAll(address,address)": {
        "notice": "Override isApprovedForAll to auto-approve OS's proxy contract see https://docs.opensea.io/docs/polygon-basic-integration"
      }
    },
    "version": 1
  },
  "storageLayout": {
    "storage": [
      {
        "astId": 130,
        "contract": "contracts/NFTetris.sol:NFTetris",
        "label": "_name",
        "offset": 0,
        "slot": "0",
        "type": "t_string_storage"
      },
      {
        "astId": 132,
        "contract": "contracts/NFTetris.sol:NFTetris",
        "label": "_symbol",
        "offset": 0,
        "slot": "1",
        "type": "t_string_storage"
      },
      {
        "astId": 136,
        "contract": "contracts/NFTetris.sol:NFTetris",
        "label": "_owners",
        "offset": 0,
        "slot": "2",
        "type": "t_mapping(t_uint256,t_address)"
      },
      {
        "astId": 140,
        "contract": "contracts/NFTetris.sol:NFTetris",
        "label": "_balances",
        "offset": 0,
        "slot": "3",
        "type": "t_mapping(t_address,t_uint256)"
      },
      {
        "astId": 144,
        "contract": "contracts/NFTetris.sol:NFTetris",
        "label": "_tokenApprovals",
        "offset": 0,
        "slot": "4",
        "type": "t_mapping(t_uint256,t_address)"
      },
      {
        "astId": 150,
        "contract": "contracts/NFTetris.sol:NFTetris",
        "label": "_operatorApprovals",
        "offset": 0,
        "slot": "5",
        "type": "t_mapping(t_address,t_mapping(t_address,t_bool))"
      },
      {
        "astId": 1117,
        "contract": "contracts/NFTetris.sol:NFTetris",
        "label": "_tokenURIs",
        "offset": 0,
        "slot": "6",
        "type": "t_mapping(t_uint256,t_string_storage)"
      },
      {
        "astId": 7,
        "contract": "contracts/NFTetris.sol:NFTetris",
        "label": "_owner",
        "offset": 0,
        "slot": "7",
        "type": "t_address"
      },
      {
        "astId": 1905,
        "contract": "contracts/NFTetris.sol:NFTetris",
        "label": "_tokenId",
        "offset": 0,
        "slot": "8",
        "type": "t_struct(Counter)1582_storage"
      },
      {
        "astId": 1907,
        "contract": "contracts/NFTetris.sol:NFTetris",
        "label": "proxyRegistryAddress",
        "offset": 0,
        "slot": "9",
        "type": "t_address"
      }
    ],
    "types": {
      "t_address": {
        "encoding": "inplace",
        "label": "address",
        "numberOfBytes": "20"
      },
      "t_bool": {
        "encoding": "inplace",
        "label": "bool",
        "numberOfBytes": "1"
      },
      "t_mapping(t_address,t_bool)": {
        "encoding": "mapping",
        "key": "t_address",
        "label": "mapping(address => bool)",
        "numberOfBytes": "32",
        "value": "t_bool"
      },
      "t_mapping(t_address,t_mapping(t_address,t_bool))": {
        "encoding": "mapping",
        "key": "t_address",
        "label": "mapping(address => mapping(address => bool))",
        "numberOfBytes": "32",
        "value": "t_mapping(t_address,t_bool)"
      },
      "t_mapping(t_address,t_uint256)": {
        "encoding": "mapping",
        "key": "t_address",
        "label": "mapping(address => uint256)",
        "numberOfBytes": "32",
        "value": "t_uint256"
      },
      "t_mapping(t_uint256,t_address)": {
        "encoding": "mapping",
        "key": "t_uint256",
        "label": "mapping(uint256 => address)",
        "numberOfBytes": "32",
        "value": "t_address"
      },
      "t_mapping(t_uint256,t_string_storage)": {
        "encoding": "mapping",
        "key": "t_uint256",
        "label": "mapping(uint256 => string)",
        "numberOfBytes": "32",
        "value": "t_string_storage"
      },
      "t_string_storage": {
        "encoding": "bytes",
        "label": "string",
        "numberOfBytes": "32"
      },
      "t_struct(Counter)1582_storage": {
        "encoding": "inplace",
        "label": "struct Counters.Counter",
        "members": [
          {
            "astId": 1581,
            "contract": "contracts/NFTetris.sol:NFTetris",
            "label": "_value",
            "offset": 0,
            "slot": "0",
            "type": "t_uint256"
          }
        ],
        "numberOfBytes": "32"
      },
      "t_uint256": {
        "encoding": "inplace",
        "label": "uint256",
        "numberOfBytes": "32"
      }
    }
  }
}